{
  "contractName": "MdexPrice",
  "abi": [
    {
      "constant": true,
      "inputs": [
        {
          "name": "",
          "type": "address"
        }
      ],
      "name": "swapLps",
      "outputs": [
        {
          "name": "",
          "type": "bool"
        }
      ],
      "payable": false,
      "stateMutability": "view",
      "type": "function"
    },
    {
      "constant": true,
      "inputs": [],
      "name": "usdt",
      "outputs": [
        {
          "name": "",
          "type": "address"
        }
      ],
      "payable": false,
      "stateMutability": "view",
      "type": "function"
    },
    {
      "constant": true,
      "inputs": [],
      "name": "isPriceOracle",
      "outputs": [
        {
          "name": "",
          "type": "bool"
        }
      ],
      "payable": false,
      "stateMutability": "view",
      "type": "function"
    },
    {
      "constant": false,
      "inputs": [],
      "name": "renounceOwnership",
      "outputs": [],
      "payable": false,
      "stateMutability": "nonpayable",
      "type": "function"
    },
    {
      "constant": true,
      "inputs": [],
      "name": "wht",
      "outputs": [
        {
          "name": "",
          "type": "address"
        }
      ],
      "payable": false,
      "stateMutability": "view",
      "type": "function"
    },
    {
      "constant": true,
      "inputs": [],
      "name": "BASE_DECIMAL",
      "outputs": [
        {
          "name": "",
          "type": "uint256"
        }
      ],
      "payable": false,
      "stateMutability": "view",
      "type": "function"
    },
    {
      "constant": true,
      "inputs": [],
      "name": "owner",
      "outputs": [
        {
          "name": "",
          "type": "address"
        }
      ],
      "payable": false,
      "stateMutability": "view",
      "type": "function"
    },
    {
      "constant": true,
      "inputs": [],
      "name": "isOwner",
      "outputs": [
        {
          "name": "",
          "type": "bool"
        }
      ],
      "payable": false,
      "stateMutability": "view",
      "type": "function"
    },
    {
      "constant": false,
      "inputs": [
        {
          "name": "controller",
          "type": "address"
        }
      ],
      "name": "setController",
      "outputs": [],
      "payable": false,
      "stateMutability": "nonpayable",
      "type": "function"
    },
    {
      "constant": true,
      "inputs": [
        {
          "name": "account",
          "type": "address"
        }
      ],
      "name": "isController",
      "outputs": [
        {
          "name": "",
          "type": "bool"
        }
      ],
      "payable": false,
      "stateMutability": "view",
      "type": "function"
    },
    {
      "constant": true,
      "inputs": [
        {
          "name": "",
          "type": "address"
        }
      ],
      "name": "underlyingExchange",
      "outputs": [
        {
          "name": "",
          "type": "address"
        }
      ],
      "payable": false,
      "stateMutability": "view",
      "type": "function"
    },
    {
      "constant": false,
      "inputs": [
        {
          "name": "newOwner",
          "type": "address"
        }
      ],
      "name": "transferOwnership",
      "outputs": [],
      "payable": false,
      "stateMutability": "nonpayable",
      "type": "function"
    },
    {
      "constant": true,
      "inputs": [],
      "name": "controller",
      "outputs": [
        {
          "name": "",
          "type": "address"
        }
      ],
      "payable": false,
      "stateMutability": "view",
      "type": "function"
    },
    {
      "inputs": [
        {
          "name": "_usdt",
          "type": "address"
        },
        {
          "name": "_wht",
          "type": "address"
        }
      ],
      "payable": false,
      "stateMutability": "nonpayable",
      "type": "constructor"
    },
    {
      "anonymous": false,
      "inputs": [
        {
          "indexed": true,
          "name": "previousController",
          "type": "address"
        },
        {
          "indexed": true,
          "name": "newController",
          "type": "address"
        }
      ],
      "name": "SetController",
      "type": "event"
    },
    {
      "anonymous": false,
      "inputs": [
        {
          "indexed": true,
          "name": "previousOwner",
          "type": "address"
        },
        {
          "indexed": true,
          "name": "newOwner",
          "type": "address"
        }
      ],
      "name": "OwnershipTransferred",
      "type": "event"
    },
    {
      "constant": true,
      "inputs": [
        {
          "name": "cToken",
          "type": "address"
        }
      ],
      "name": "getUnderlyingPrice",
      "outputs": [
        {
          "name": "",
          "type": "uint256"
        }
      ],
      "payable": false,
      "stateMutability": "view",
      "type": "function"
    },
    {
      "constant": true,
      "inputs": [
        {
          "name": "_address",
          "type": "address"
        }
      ],
      "name": "getPrice",
      "outputs": [
        {
          "name": "",
          "type": "uint256"
        }
      ],
      "payable": false,
      "stateMutability": "view",
      "type": "function"
    },
    {
      "constant": false,
      "inputs": [
        {
          "name": "underlying",
          "type": "address"
        },
        {
          "name": "exchange",
          "type": "address"
        }
      ],
      "name": "setUnderlyingExchange",
      "outputs": [],
      "payable": false,
      "stateMutability": "nonpayable",
      "type": "function"
    },
    {
      "constant": false,
      "inputs": [
        {
          "name": "_pairaddress",
          "type": "address"
        }
      ],
      "name": "addSwapLp",
      "outputs": [],
      "payable": false,
      "stateMutability": "nonpayable",
      "type": "function"
    },
    {
      "constant": true,
      "inputs": [
        {
          "name": "_pairAddress",
          "type": "address"
        }
      ],
      "name": "calLpPrice",
      "outputs": [
        {
          "name": "",
          "type": "uint256"
        }
      ],
      "payable": false,
      "stateMutability": "view",
      "type": "function"
    }
  ],
  "bytecode": "0x60806040523480156200001157600080fd5b506040516200129a3803806200129a833981016040819052620000349162000143565b6000620000496001600160e01b036200012c16565b600080546001600160a01b0319166001600160a01b0383169081178255604051929350917f8be0079c531659141344cd1fd0a4f28419497f9722a3daafe3b4186f6b6457e0908290a3506000620000a86001600160e01b036200012c16565b600180546001600160a01b0319166001600160a01b03838116919091179182905560405192935016906000907f9fdb07212c6f92fd298affc4000712177664bc3c4cae5f61098d42da6d05be1e908290a350600280546001600160a01b039384166001600160a01b03199182161790915560038054929093169116179055620001ae565b3390565b80516200013d8162000194565b92915050565b600080604083850312156200015757600080fd5b600062000165858562000130565b9250506020620001788582860162000130565b9150509250929050565b60006001600160a01b0382166200013d565b6200019f8162000182565b8114620001ab57600080fd5b50565b6110dc80620001be6000396000f3fe608060405234801561001057600080fd5b50600436106101165760003560e01c80638da5cb5b116100a2578063b832c53c11610071578063b832c53c146101f7578063c84378d01461020a578063f2fde38b1461021d578063f77c479114610230578063fc57d4df1461023857610116565b80638da5cb5b146101c15780638f32d59b146101c957806392eefe9b146101d1578063b429afeb146101e457610116565b806361fd2ea8116100e957806361fd2ea81461018e57806366331bba146101a1578063715018a6146101a9578063785f3499146101b15780638af81478146101b957610116565b80630f4c2e021461011b5780632405329e146101445780632f48ab7d1461015957806341976e091461016e575b600080fd5b61012e610129366004610cb9565b61024b565b60405161013b9190610f66565b60405180910390f35b610157610152366004610cb9565b610260565b005b6101616102b2565b60405161013b9190610f3d565b61018161017c366004610cb9565b6102c1565b60405161013b9190610fe5565b61018161019c366004610cb9565b61038c565b61012e6107f3565b6101576107f8565b610161610866565b610181610875565b610161610881565b61012e610890565b6101576101df366004610cb9565b6108b4565b61012e6101f2366004610cb9565b61095b565b610157610205366004610cfd565b61096f565b610161610218366004610cb9565b6109c2565b61015761022b366004610cb9565b6109dd565b610161610a0d565b610181610246366004610d37565b610a1c565b60056020526000908152604090205460ff1681565b6102693361095b565b61028e5760405162461bcd60e51b815260040161028590610f95565b60405180910390fd5b6001600160a01b03166000908152600560205260409020805460ff19166001179055565b6002546001600160a01b031681565b6002546000906001600160a01b03838116911614156102e95750670de0b6b3a7640000610387565b6001600160a01b03808316600090815260046020819052604091829020549151632b66e00960e21b8152919092169163ad9b802491610334918691670de0b6b3a76400009101610f4b565b60206040518083038186803b15801561034c57600080fd5b505afa158015610360573d6000803e3d6000fd5b505050506040513d601f19601f820116820180604052506103849190810190610d55565b90505b919050565b600080826001600160a01b0316630dfe16816040518163ffffffff1660e01b815260040160206040518083038186803b1580156103c857600080fd5b505afa1580156103dc573d6000803e3d6000fd5b505050506040513d601f19601f820116820180604052506104009190810190610cdf565b90506000836001600160a01b031663d21220a76040518163ffffffff1660e01b815260040160206040518083038186803b15801561043d57600080fd5b505afa158015610451573d6000803e3d6000fd5b505050506040513d601f19601f820116820180604052506104759190810190610cdf565b90506000610570856001600160a01b031663313ce5676040518163ffffffff1660e01b815260040160206040518083038186803b1580156104b557600080fd5b505afa1580156104c9573d6000803e3d6000fd5b505050506040513d601f19601f820116820180604052506104ed9190810190610d73565b60ff16600a0a866001600160a01b03166318160ddd6040518163ffffffff1660e01b815260040160206040518083038186803b15801561052c57600080fd5b505afa158015610540573d6000803e3d6000fd5b505050506040513d601f19601f820116820180604052506105649190810190610d55565b9063ffffffff610b0416565b90506000836001600160a01b03166370a08231876040518263ffffffff1660e01b81526004016105a09190610f3d565b60206040518083038186803b1580156105b857600080fd5b505afa1580156105cc573d6000803e3d6000fd5b505050506040513d601f19601f820116820180604052506105f09190810190610d55565b90506000836001600160a01b03166370a08231886040518263ffffffff1660e01b81526004016106209190610f3d565b60206040518083038186803b15801561063857600080fd5b505afa15801561064c573d6000803e3d6000fd5b505050506040513d601f19601f820116820180604052506106709190810190610d55565b90506000856001600160a01b031663313ce5676040518163ffffffff1660e01b815260040160206040518083038186803b1580156106ad57600080fd5b505afa1580156106c1573d6000803e3d6000fd5b505050506040513d601f19601f820116820180604052506106e59190810190610d73565b60ff1690506000856001600160a01b031663313ce5676040518163ffffffff1660e01b815260040160206040518083038186803b15801561072557600080fd5b505afa158015610739573d6000803e3d6000fd5b505050506040513d601f19601f8201168201806040525061075d9190810190610d73565b60ff169050600061076d886102c1565b9050600061079861078888600a87900a63ffffffff610b4f16565b610564888563ffffffff610b4f16565b905060006107a5896102c1565b905060006107d06107c08a600a88900a63ffffffff610b4f16565b610564898563ffffffff610b4f16565b90506107e2838263ffffffff610b8916565b9d9c50505050505050505050505050565b600181565b610800610890565b61081c5760405162461bcd60e51b815260040161028590610fc5565b600080546040516001600160a01b03909116907f8be0079c531659141344cd1fd0a4f28419497f9722a3daafe3b4186f6b6457e0908390a3600080546001600160a01b0319169055565b6003546001600160a01b031681565b670de0b6b3a764000081565b6000546001600160a01b031690565b600080546001600160a01b03166108a5610bae565b6001600160a01b031614905090565b6108bc610890565b6108d85760405162461bcd60e51b815260040161028590610fc5565b6001600160a01b0381166108fe5760405162461bcd60e51b815260040161028590610fd5565b6001546040516001600160a01b03918216918316907f9fdb07212c6f92fd298affc4000712177664bc3c4cae5f61098d42da6d05be1e90600090a3600180546001600160a01b0319166001600160a01b0392909216919091179055565b6001546001600160a01b0390811691161490565b6109783361095b565b6109945760405162461bcd60e51b815260040161028590610f95565b6001600160a01b03918216600090815260046020526040902080546001600160a01b03191691909216179055565b6004602052600090815260409020546001600160a01b031681565b6109e5610890565b610a015760405162461bcd60e51b815260040161028590610fc5565b610a0a81610bb2565b50565b6001546001600160a01b031690565b600080826001600160a01b0316636f307dc36040518163ffffffff1660e01b815260040160206040518083038186803b158015610a5857600080fd5b505afa158015610a6c573d6000803e3d6000fd5b505050506040513d601f19601f82011682018060405250610a909190810190610cdf565b6001600160a01b03811660009081526005602052604090205490915060ff1615610ac557610abd8161038c565b915050610387565b610acd610c33565b6001600160a01b0316816001600160a01b03161415610af457506003546001600160a01b03165b610afd816102c1565b9392505050565b6000610b4683836040518060400160405280601a81526020017f536166654d6174683a206469766973696f6e206279207a65726f000000000000815250610c4b565b90505b92915050565b600082610b5e57506000610b49565b82820282848281610b6b57fe5b0414610b465760405162461bcd60e51b815260040161028590610fb5565b600082820183811015610b465760405162461bcd60e51b815260040161028590610fa5565b3390565b6001600160a01b038116610bd85760405162461bcd60e51b815260040161028590610f85565b600080546040516001600160a01b03808516939216917f8be0079c531659141344cd1fd0a4f28419497f9722a3daafe3b4186f6b6457e091a3600080546001600160a01b0319166001600160a01b0392909216919091179055565b73eeeeeeeeeeeeeeeeeeeeeeeeeeeeeeeeeeeeeeee90565b60008183610c6c5760405162461bcd60e51b81526004016102859190610f74565b506000838581610c7857fe5b0495945050505050565b8035610b498161106a565b8051610b498161106a565b8035610b498161107e565b8051610b4981611087565b8051610b4981611090565b600060208284031215610ccb57600080fd5b6000610cd78484610c82565b949350505050565b600060208284031215610cf157600080fd5b6000610cd78484610c8d565b60008060408385031215610d1057600080fd5b6000610d1c8585610c82565b9250506020610d2d85828601610c82565b9150509250929050565b600060208284031215610d4957600080fd5b6000610cd78484610c98565b600060208284031215610d6757600080fd5b6000610cd78484610ca3565b600060208284031215610d8557600080fd5b6000610cd78484610cae565b610d9a81611000565b82525050565b610d9a8161100b565b6000610db482610ff3565b610dbe8185610ff7565b9350610dce818560208601611030565b610dd781611060565b9093019392505050565b6000610dee602683610ff7565b7f4f776e61626c653a206e6577206f776e657220697320746865207a65726f206181526564647265737360d01b602082015260400192915050565b6000610e36600b83610ff7565b6a10b1b7b73a3937b63632b960a91b815260200192915050565b6000610e5d601b83610ff7565b7f536166654d6174683a206164646974696f6e206f766572666c6f770000000000815260200192915050565b6000610e96602183610ff7565b7f536166654d6174683a206d756c7469706c69636174696f6e206f766572666c6f8152607760f81b602082015260400192915050565b6000610ed9602083610ff7565b7f4f776e61626c653a2063616c6c6572206973206e6f7420746865206f776e6572815260200192915050565b6000610f12601383610ff7565b72636f6e74726f6c6c657220697320656d70747960681b815260200192915050565b610d9a81611027565b60208101610b498284610d91565b60408101610f598285610d91565b610afd6020830184610f34565b60208101610b498284610da0565b60208082528101610b468184610da9565b6020808252810161038481610de1565b6020808252810161038481610e29565b6020808252810161038481610e50565b6020808252810161038481610e89565b6020808252810161038481610ecc565b6020808252810161038481610f05565b60208101610b498284610f34565b5190565b90815260200190565b60006103848261101b565b151590565b600061038482611000565b6001600160a01b031690565b90565b60ff1690565b60005b8381101561104b578181015183820152602001611033565b8381111561105a576000848401525b50505050565b601f01601f191690565b61107381611000565b8114610a0a57600080fd5b61107381611010565b61107381611027565b6110738161102a56fea365627a7a72305820a3033a771229082b0efdb475b4e144247d6b873ec9558eddeda11b4bbe1d96216c6578706572696d656e74616cf564736f6c63430005090040",
  "source": "pragma solidity ^0.5.9;\npragma experimental ABIEncoderV2;\n\nimport \"../lib/Controller.sol\";\nimport \"../lib/ERC20Detailed.sol\";\nimport \"../CToken.sol\";\nimport \"../interface/PriceOracle.sol\";\nimport \"../interface/IMdexPair.sol\";\nimport \"../lib/SafeMath.sol\";\nimport \"../lib/NativeAddressLib.sol\";\n\n\ncontract MdexPrice is Controller, PriceOracle {\n\n    using SafeMath for uint256;\n\n    uint public constant BASE_DECIMAL = 1e18;\n    address public usdt;\n    address public wht;\n\n\n    mapping(address => address) public underlyingExchange;\n\n    mapping(address => bool) public swapLps;\n\n    constructor(address _usdt, address _wht)  Controller() public {\n        usdt = _usdt;\n        wht = _wht;\n    }\n\n    function getUnderlyingPrice(CToken cToken) external view returns (uint){\n        address _underlying = cToken.underlying();\n        if (swapLps[_underlying]) {\n            return calLpPrice(_underlying);\n        }\n        if (_underlying == NativeAddressLib.nativeAddress()) {\n            _underlying = wht;\n        }\n        return getPrice(_underlying);\n    }\n\n    function getPrice(address _address) public view returns (uint){\n        if (_address == usdt) {\n            return BASE_DECIMAL;\n        }\n        return IMdexPair(underlyingExchange[_address]).price(_address, BASE_DECIMAL);\n    }\n\n\n    function setUnderlyingExchange(address underlying, address exchange) onlyController external {\n        underlyingExchange[underlying] = exchange;\n    }\n\n\n    function addSwapLp(address _pairaddress) onlyController external {\n        swapLps[_pairaddress] = true;\n\n    }\n\n    function calLpPrice(address _pairAddress) public view returns (uint){\n\n        address token0 = IMdexPair(_pairAddress).token0();\n        address token1 = IMdexPair(_pairAddress).token1();\n\n        uint _totalSupply = IMdexPair(_pairAddress).totalSupply().div(10 ** uint(IMdexPair(_pairAddress).decimals()));\n\n        uint _totalToken0 = ERC20Detailed(token0).balanceOf(_pairAddress);\n\n        uint _totalToken1 = ERC20Detailed(token1).balanceOf(_pairAddress);\n\n        uint _token0Decimal = ERC20Detailed(token0).decimals();\n        uint _token1Decimal = ERC20Detailed(token1).decimals();\n\n\n        uint _token0Price = getPrice(token0);\n\n        uint _lpPerToken0 =\n        (_totalToken0.mul(_token0Price)).div(_totalSupply.mul(10 ** _token0Decimal));\n\n\n        uint _token1Price = getPrice(token1);\n\n        uint _lpPerToken1 = (_totalToken1.mul(_token1Price)).div(_totalSupply.mul(10 ** _token1Decimal));\n\n        return _lpPerToken0.add(_lpPerToken1);\n\n    }\n\n\n}\n",
  "sourcePath": "/Users/jjz/Documents/workspace/cryptocurrency/contract/foxdex/lending/contracts/oracle/MdexPrice.sol",
  "compiler": {
    "name": "solc",
    "version": "0.5.9+commit.e560f70d.Emscripten.clang"
  },
  "schemaVersion": "3.3.3",
  "updatedAt": "2021-02-02T13:51:41.852Z",
  "networkType": "ethereum",
  "devdoc": {
    "methods": {
      "isOwner()": {
        "details": "Returns true if the caller is the current owner."
      },
      "owner()": {
        "details": "Returns the address of the current owner."
      },
      "renounceOwnership()": {
        "details": "Leaves the contract without owner. It will not be possible to call `onlyOwner` functions anymore. Can only be called by the current owner.     * NOTE: Renouncing ownership will leave the contract without an owner, thereby removing any functionality that is only available to the owner."
      },
      "transferOwnership(address)": {
        "details": "Transfers ownership of the contract to a new account (`newOwner`). Can only be called by the current owner."
      }
    }
  },
  "userdoc": {
    "methods": {}
  }
}